{"contracts/SimpleStorage.sol":{"SimpleStorage":{"abi":[{"anonymous":false,"inputs":[{"indexed":true,"internalType":"uint256","name":"previousValue","type":"uint256"},{"indexed":true,"internalType":"uint256","name":"newValue","type":"uint256"},{"indexed":true,"internalType":"address","name":"changedBy","type":"address"}],"name":"ValueChanged","type":"event"},{"inputs":[],"name":"decrement","outputs":[],"stateMutability":"nonpayable","type":"function"},{"inputs":[],"name":"getValue","outputs":[{"internalType":"uint256","name":"","type":"uint256"}],"stateMutability":"view","type":"function"},{"inputs":[],"name":"increment","outputs":[],"stateMutability":"nonpayable","type":"function"},{"inputs":[],"name":"value","outputs":[{"internalType":"uint256","name":"","type":"uint256"}],"stateMutability":"view","type":"function"}],"evm":{"bytecode":{"linkReferences":{},"object":"608060405260008055348015601357600080fd5b50610344806100236000396000f3fe608060405234801561001057600080fd5b506004361061004c5760003560e01c806320965255146100515780632baeceb71461006f5780633fa4f24514610079578063d09de08a14610097575b600080fd5b6100596100a1565b60405161006691906101df565b60405180910390f35b6100776100aa565b005b610081610157565b60405161008e91906101df565b60405180910390f35b61009f61015d565b005b60008054905090565b60008054116100ee576040517f08c379a00000000000000000000000000000000000000000000000000000000081526004016100e590610257565b60405180910390fd5b600080549050600160008082825461010691906102a6565b925050819055503373ffffffffffffffffffffffffffffffffffffffff16600054827f681683094c99fb1b55d9c72829a0516f885774946ee037b112798941433c137b60405160405180910390a450565b60005481565b600080549050600160008082825461017591906102da565b925050819055503373ffffffffffffffffffffffffffffffffffffffff16600054827f681683094c99fb1b55d9c72829a0516f885774946ee037b112798941433c137b60405160405180910390a450565b6000819050919050565b6101d9816101c6565b82525050565b60006020820190506101f460008301846101d0565b92915050565b600082825260208201905092915050565b7f43616e6e6f742064656372656d656e742062656c6f77207a65726f0000000000600082015250565b6000610241601b836101fa565b915061024c8261020b565b602082019050919050565b6000602082019050818103600083015261027081610234565b9050919050565b7f4e487b7100000000000000000000000000000000000000000000000000000000600052601160045260246000fd5b60006102b1826101c6565b91506102bc836101c6565b92508282039050818111156102d4576102d3610277565b5b92915050565b60006102e5826101c6565b91506102f0836101c6565b925082820190508082111561030857610307610277565b5b9291505056fea2646970667358221220ff78ac0a7cf255c9902af76a4f69869fde6fb673d8a26bc6de995c660700e5e164736f6c634300081c0033","opcodes":"PUSH1 0x80 PUSH1 0x40 MSTORE PUSH1 0x0 DUP1 SSTORE CALLVALUE DUP1 ISZERO PUSH1 0x13 JUMPI PUSH1 0x0 DUP1 REVERT JUMPDEST POP PUSH2 0x344 DUP1 PUSH2 0x23 PUSH1 0x0 CODECOPY PUSH1 0x0 RETURN INVALID PUSH1 0x80 PUSH1 0x40 MSTORE CALLVALUE DUP1 ISZERO PUSH2 0x10 JUMPI PUSH1 0x0 DUP1 REVERT JUMPDEST POP PUSH1 0x4 CALLDATASIZE LT PUSH2 0x4C JUMPI PUSH1 0x0 CALLDATALOAD PUSH1 0xE0 SHR DUP1 PUSH4 0x20965255 EQ PUSH2 0x51 JUMPI DUP1 PUSH4 0x2BAECEB7 EQ PUSH2 0x6F JUMPI DUP1 PUSH4 0x3FA4F245 EQ PUSH2 0x79 JUMPI DUP1 PUSH4 0xD09DE08A EQ PUSH2 0x97 JUMPI JUMPDEST PUSH1 0x0 DUP1 REVERT JUMPDEST PUSH2 0x59 PUSH2 0xA1 JUMP JUMPDEST PUSH1 0x40 MLOAD PUSH2 0x66 SWAP2 SWAP1 PUSH2 0x1DF JUMP JUMPDEST PUSH1 0x40 MLOAD DUP1 SWAP2 SUB SWAP1 RETURN JUMPDEST PUSH2 0x77 PUSH2 0xAA JUMP JUMPDEST STOP JUMPDEST PUSH2 0x81 PUSH2 0x157 JUMP JUMPDEST PUSH1 0x40 MLOAD PUSH2 0x8E SWAP2 SWAP1 PUSH2 0x1DF JUMP JUMPDEST PUSH1 0x40 MLOAD DUP1 SWAP2 SUB SWAP1 RETURN JUMPDEST PUSH2 0x9F PUSH2 0x15D JUMP JUMPDEST STOP JUMPDEST PUSH1 0x0 DUP1 SLOAD SWAP1 POP SWAP1 JUMP JUMPDEST PUSH1 0x0 DUP1 SLOAD GT PUSH2 0xEE JUMPI PUSH1 0x40 MLOAD PUSH32 0x8C379A000000000000000000000000000000000000000000000000000000000 DUP2 MSTORE PUSH1 0x4 ADD PUSH2 0xE5 SWAP1 PUSH2 0x257 JUMP JUMPDEST PUSH1 0x40 MLOAD DUP1 SWAP2 SUB SWAP1 REVERT JUMPDEST PUSH1 0x0 DUP1 SLOAD SWAP1 POP PUSH1 0x1 PUSH1 0x0 DUP1 DUP3 DUP3 SLOAD PUSH2 0x106 SWAP2 SWAP1 PUSH2 0x2A6 JUMP JUMPDEST SWAP3 POP POP DUP2 SWAP1 SSTORE POP CALLER PUSH20 0xFFFFFFFFFFFFFFFFFFFFFFFFFFFFFFFFFFFFFFFF AND PUSH1 0x0 SLOAD DUP3 PUSH32 0x681683094C99FB1B55D9C72829A0516F885774946EE037B112798941433C137B PUSH1 0x40 MLOAD PUSH1 0x40 MLOAD DUP1 SWAP2 SUB SWAP1 LOG4 POP JUMP JUMPDEST PUSH1 0x0 SLOAD DUP2 JUMP JUMPDEST PUSH1 0x0 DUP1 SLOAD SWAP1 POP PUSH1 0x1 PUSH1 0x0 DUP1 DUP3 DUP3 SLOAD PUSH2 0x175 SWAP2 SWAP1 PUSH2 0x2DA JUMP JUMPDEST SWAP3 POP POP DUP2 SWAP1 SSTORE POP CALLER PUSH20 0xFFFFFFFFFFFFFFFFFFFFFFFFFFFFFFFFFFFFFFFF AND PUSH1 0x0 SLOAD DUP3 PUSH32 0x681683094C99FB1B55D9C72829A0516F885774946EE037B112798941433C137B PUSH1 0x40 MLOAD PUSH1 0x40 MLOAD DUP1 SWAP2 SUB SWAP1 LOG4 POP JUMP JUMPDEST PUSH1 0x0 DUP2 SWAP1 POP SWAP2 SWAP1 POP JUMP JUMPDEST PUSH2 0x1D9 DUP2 PUSH2 0x1C6 JUMP JUMPDEST DUP3 MSTORE POP POP JUMP JUMPDEST PUSH1 0x0 PUSH1 0x20 DUP3 ADD SWAP1 POP PUSH2 0x1F4 PUSH1 0x0 DUP4 ADD DUP5 PUSH2 0x1D0 JUMP JUMPDEST SWAP3 SWAP2 POP POP JUMP JUMPDEST PUSH1 0x0 DUP3 DUP3 MSTORE PUSH1 0x20 DUP3 ADD SWAP1 POP SWAP3 SWAP2 POP POP JUMP JUMPDEST PUSH32 0x43616E6E6F742064656372656D656E742062656C6F77207A65726F0000000000 PUSH1 0x0 DUP3 ADD MSTORE POP JUMP JUMPDEST PUSH1 0x0 PUSH2 0x241 PUSH1 0x1B DUP4 PUSH2 0x1FA JUMP JUMPDEST SWAP2 POP PUSH2 0x24C DUP3 PUSH2 0x20B JUMP JUMPDEST PUSH1 0x20 DUP3 ADD SWAP1 POP SWAP2 SWAP1 POP JUMP JUMPDEST PUSH1 0x0 PUSH1 0x20 DUP3 ADD SWAP1 POP DUP2 DUP2 SUB PUSH1 0x0 DUP4 ADD MSTORE PUSH2 0x270 DUP2 PUSH2 0x234 JUMP JUMPDEST SWAP1 POP SWAP2 SWAP1 POP JUMP JUMPDEST PUSH32 0x4E487B7100000000000000000000000000000000000000000000000000000000 PUSH1 0x0 MSTORE PUSH1 0x11 PUSH1 0x4 MSTORE PUSH1 0x24 PUSH1 0x0 REVERT JUMPDEST PUSH1 0x0 PUSH2 0x2B1 DUP3 PUSH2 0x1C6 JUMP JUMPDEST SWAP2 POP PUSH2 0x2BC DUP4 PUSH2 0x1C6 JUMP JUMPDEST SWAP3 POP DUP3 DUP3 SUB SWAP1 POP DUP2 DUP2 GT ISZERO PUSH2 0x2D4 JUMPI PUSH2 0x2D3 PUSH2 0x277 JUMP JUMPDEST JUMPDEST SWAP3 SWAP2 POP POP JUMP JUMPDEST PUSH1 0x0 PUSH2 0x2E5 DUP3 PUSH2 0x1C6 JUMP JUMPDEST SWAP2 POP PUSH2 0x2F0 DUP4 PUSH2 0x1C6 JUMP JUMPDEST SWAP3 POP DUP3 DUP3 ADD SWAP1 POP DUP1 DUP3 GT ISZERO PUSH2 0x308 JUMPI PUSH2 0x307 PUSH2 0x277 JUMP JUMPDEST JUMPDEST SWAP3 SWAP2 POP POP JUMP INVALID LOG2 PUSH5 0x6970667358 0x22 SLT KECCAK256 SELFDESTRUCT PUSH25 0xAC0A7CF255C9902AF76A4F69869FDE6FB673D8A26BC6DE995C PUSH7 0x700E5E164736F PUSH13 0x634300081C0033000000000000 "},"methodIdentifiers":{"decrement()":"2baeceb7","getValue()":"20965255","increment()":"d09de08a","value()":"3fa4f245"}}}}}