{
  "_format": "hh-sol-artifact-1",
  "contractName": "SimpleStorage",
  "sourceName": "contracts/SimpleStorage.sol",
  "abi": [
    {
      "anonymous": false,
      "inputs": [
        {
          "indexed": true,
          "internalType": "uint256",
          "name": "previousValue",
          "type": "uint256"
        },
        {
          "indexed": true,
          "internalType": "uint256",
          "name": "newValue",
          "type": "uint256"
        },
        {
          "indexed": true,
          "internalType": "address",
          "name": "changedBy",
          "type": "address"
        }
      ],
      "name": "ValueChanged",
      "type": "event"
    },
    {
      "inputs": [],
      "name": "decrement",
      "outputs": [],
      "stateMutability": "nonpayable",
      "type": "function"
    },
    {
      "inputs": [],
      "name": "getValue",
      "outputs": [
        {
          "internalType": "uint256",
          "name": "",
          "type": "uint256"
        }
      ],
      "stateMutability": "view",
      "type": "function"
    },
    {
      "inputs": [],
      "name": "increment",
      "outputs": [],
      "stateMutability": "nonpayable",
      "type": "function"
    },
    {
      "inputs": [],
      "name": "value",
      "outputs": [
        {
          "internalType": "uint256",
          "name": "",
          "type": "uint256"
        }
      ],
      "stateMutability": "view",
      "type": "function"
    }
  ],
  "bytecode": "0x608060405260008055348015601357600080fd5b5061036a806100236000396000f3fe608060405234801561001057600080fd5b506004361061004c5760003560e01c806320965255146100515780632baeceb71461006f5780633fa4f24514610079578063d09de08a14610097575b600080fd5b6100596100a1565b60405161006691906101df565b60405180910390f35b6100776100aa565b005b610081610157565b60405161008e91906101df565b60405180910390f35b61009f61015d565b005b60008054905090565b60008054116100ee576040517f08c379a00000000000000000000000000000000000000000000000000000000081526004016100e59061027d565b60405180910390fd5b600080549050600160008082825461010691906102cc565b925050819055503373ffffffffffffffffffffffffffffffffffffffff16600054827f681683094c99fb1b55d9c72829a0516f885774946ee037b112798941433c137b60405160405180910390a450565b60005481565b60008054905060016000808282546101759190610300565b925050819055503373ffffffffffffffffffffffffffffffffffffffff16600054827f681683094c99fb1b55d9c72829a0516f885774946ee037b112798941433c137b60405160405180910390a450565b6000819050919050565b6101d9816101c6565b82525050565b60006020820190506101f460008301846101d0565b92915050565b600082825260208201905092915050565b7f53696d706c6553746f726167653a2063616e6e6f742064656372656d656e742060008201527f62656c6f77207a65726f00000000000000000000000000000000000000000000602082015250565b6000610267602a836101fa565b91506102728261020b565b604082019050919050565b600060208201905081810360008301526102968161025a565b9050919050565b7f4e487b7100000000000000000000000000000000000000000000000000000000600052601160045260246000fd5b60006102d7826101c6565b91506102e2836101c6565b92508282039050818111156102fa576102f961029d565b5b92915050565b600061030b826101c6565b9150610316836101c6565b925082820190508082111561032e5761032d61029d565b5b9291505056fea264697066735822122025233fefaa466c94e77b4586342cebcb5cea0e7c314ba3a54e52096589e3b4e864736f6c634300081c0033",
  "linkReferences": {},
  "deployedLinkReferences": {}
}